{
  "contractName": "Candidate",
  "abi": [
    {
      "inputs": [
        {
          "internalType": "string",
          "name": "_constituency_id",
          "type": "string"
        },
        {
          "internalType": "string",
          "name": "_party_id",
          "type": "string"
        },
        {
          "internalType": "string",
          "name": "_election_id",
          "type": "string"
        }
      ],
      "stateMutability": "nonpayable",
      "type": "constructor"
    },
    {
      "anonymous": false,
      "inputs": [
        {
          "indexed": false,
          "internalType": "string",
          "name": "constituencyId",
          "type": "string"
        },
        {
          "indexed": false,
          "internalType": "string",
          "name": "partyId",
          "type": "string"
        },
        {
          "indexed": false,
          "internalType": "string",
          "name": "electionId",
          "type": "string"
        }
      ],
      "name": "CandidateDetailsUpdated",
      "type": "event"
    },
    {
      "anonymous": false,
      "inputs": [
        {
          "indexed": false,
          "internalType": "string",
          "name": "constituencyId",
          "type": "string"
        },
        {
          "indexed": false,
          "internalType": "string",
          "name": "partyId",
          "type": "string"
        },
        {
          "indexed": false,
          "internalType": "string",
          "name": "electionId",
          "type": "string"
        }
      ],
      "name": "CandidateRegistered",
      "type": "event"
    },
    {
      "inputs": [
        {
          "internalType": "string",
          "name": "_newConstituencyId",
          "type": "string"
        },
        {
          "internalType": "string",
          "name": "_newPartyId",
          "type": "string"
        },
        {
          "internalType": "string",
          "name": "_newElectionId",
          "type": "string"
        }
      ],
      "name": "updateCandidateDetails",
      "outputs": [],
      "stateMutability": "nonpayable",
      "type": "function"
    }
  ],
  "bytecode": "0x60806040523480156200001157600080fd5b50604051620009f1380380620009f1833981810160405281019062000037919062000315565b82600090805190602001906200004f929190620000c8565b50816001908051906020019062000068929190620000c8565b50806002908051906020019062000081929190620000c8565b507f035a9a1e9ac9e5c3ca7b27ce1f79a0869c77d7ad11b11d761fd0c3ce7aac333c838383604051620000b7939291906200042b565b60405180910390a1505050620004e1565b828054620000d690620004ac565b90600052602060002090601f016020900481019282620000fa576000855562000146565b82601f106200011557805160ff191683800117855562000146565b8280016001018555821562000146579182015b828111156200014557825182559160200191906001019062000128565b5b50905062000155919062000159565b5090565b5b80821115620001745760008160009055506001016200015a565b5090565b6000604051905090565b600080fd5b600080fd5b600080fd5b600080fd5b6000601f19601f8301169050919050565b7f4e487b7100000000000000000000000000000000000000000000000000000000600052604160045260246000fd5b620001e18262000196565b810181811067ffffffffffffffff82111715620002035762000202620001a7565b5b80604052505050565b60006200021862000178565b9050620002268282620001d6565b919050565b600067ffffffffffffffff821115620002495762000248620001a7565b5b620002548262000196565b9050602081019050919050565b60005b838110156200028157808201518184015260208101905062000264565b8381111562000291576000848401525b50505050565b6000620002ae620002a8846200022b565b6200020c565b905082815260208101848484011115620002cd57620002cc62000191565b5b620002da84828562000261565b509392505050565b600082601f830112620002fa57620002f96200018c565b5b81516200030c84826020860162000297565b91505092915050565b60008060006060848603121562000331576200033062000182565b5b600084015167ffffffffffffffff81111562000352576200035162000187565b5b6200036086828701620002e2565b935050602084015167ffffffffffffffff81111562000384576200038362000187565b5b6200039286828701620002e2565b925050604084015167ffffffffffffffff811115620003b657620003b562000187565b5b620003c486828701620002e2565b9150509250925092565b600081519050919050565b600082825260208201905092915050565b6000620003f782620003ce565b620004038185620003d9565b93506200041581856020860162000261565b620004208162000196565b840191505092915050565b60006060820190508181036000830152620004478186620003ea565b905081810360208301526200045d8185620003ea565b90508181036040830152620004738184620003ea565b9050949350505050565b7f4e487b7100000000000000000000000000000000000000000000000000000000600052602260045260246000fd5b60006002820490506001821680620004c557607f821691505b602082108103620004db57620004da6200047d565b5b50919050565b61050080620004f16000396000f3fe608060405234801561001057600080fd5b506004361061002b5760003560e01c80630cce6ee414610030575b600080fd5b61004a600480360381019061004591906102d1565b61004c565b005b81600190805190602001906100629291906100d4565b5082600090805190602001906100799291906100d4565b5080600290805190602001906100909291906100d4565b507f772af0dcf53ded4e18a89844c6c5c5fe454028df969a089579bf6af6c9e4a6726000600160026040516100c79392919061047e565b60405180910390a1505050565b8280546100e0906103a7565b90600052602060002090601f0160209004810192826101025760008555610149565b82601f1061011b57805160ff1916838001178555610149565b82800160010185558215610149579182015b8281111561014857825182559160200191906001019061012d565b5b509050610156919061015a565b5090565b5b8082111561017357600081600090555060010161015b565b5090565b6000604051905090565b600080fd5b600080fd5b600080fd5b600080fd5b6000601f19601f8301169050919050565b7f4e487b7100000000000000000000000000000000000000000000000000000000600052604160045260246000fd5b6101de82610195565b810181811067ffffffffffffffff821117156101fd576101fc6101a6565b5b80604052505050565b6000610210610177565b905061021c82826101d5565b919050565b600067ffffffffffffffff82111561023c5761023b6101a6565b5b61024582610195565b9050602081019050919050565b82818337600083830152505050565b600061027461026f84610221565b610206565b9050828152602081018484840111156102905761028f610190565b5b61029b848285610252565b509392505050565b600082601f8301126102b8576102b761018b565b5b81356102c8848260208601610261565b91505092915050565b6000806000606084860312156102ea576102e9610181565b5b600084013567ffffffffffffffff81111561030857610307610186565b5b610314868287016102a3565b935050602084013567ffffffffffffffff81111561033557610334610186565b5b610341868287016102a3565b925050604084013567ffffffffffffffff81111561036257610361610186565b5b61036e868287016102a3565b9150509250925092565b7f4e487b7100000000000000000000000000000000000000000000000000000000600052602260045260246000fd5b600060028204905060018216806103bf57607f821691505b6020821081036103d2576103d1610378565b5b50919050565b600082825260208201905092915050565b60008190508160005260206000209050919050565b6000815461040b816103a7565b61041581866103d8565b94506001821660008114610430576001811461044257610475565b60ff1983168652602086019350610475565b61044b856103e9565b60005b8381101561046d5781548189015260018201915060208101905061044e565b808801955050505b50505092915050565b6000606082019050818103600083015261049881866103fe565b905081810360208301526104ac81856103fe565b905081810360408301526104c081846103fe565b905094935050505056fea26469706673582212204a0981c7a6854b625363d4d83cbc54bf778cee40391a0fa7f6a6cab30b0eab9b64736f6c634300080d0033",
  "immutableReferences": {},
  "source": "// SPDX-License-Identifier: MIT \r\npragma solidity >=0.4.20;\r\n\r\ncontract Candidate {\r\n    // Read/write candidate\r\n    string private constituency_id;\r\n    string private party_id;\r\n    string private election_id;\r\n\r\n    event CandidateRegistered(string constituencyId, string partyId, string electionId);\r\n    event CandidateDetailsUpdated(string constituencyId, string partyId, string electionId);\r\n\r\n\r\n    constructor(string memory _constituency_id, string memory _party_id, string memory _election_id) {\r\n        constituency_id = _constituency_id;\r\n        party_id = _party_id;\r\n        election_id = _election_id;\r\n\r\n        emit CandidateRegistered(_constituency_id, _party_id, _election_id); \r\n    }\r\n    \r\n    function updateCandidateDetails(\r\n        string memory _newConstituencyId,\r\n        string memory _newPartyId,\r\n        string memory _newElectionId\r\n    ) public {\r\n        party_id = _newPartyId;\r\n        constituency_id = _newConstituencyId;\r\n        election_id = _newElectionId;\r\n\r\n        emit CandidateDetailsUpdated(constituency_id, party_id, election_id);\r\n    }\r\n}",
  "sourcePath": "D:\\Essex\\dApp\\22-23_CE901-CE902-SU_chaudhary_ashir\\d-voting-app-client\\src\\Blockchain\\contracts\\Candidate.sol",
  "compiler": {
    "name": "solc",
    "version": "0.8.13+commit.abaa5c0e.Emscripten.clang"
  },
  "schemaVersion": "3.4.15",
  "updatedAt": "2023-09-05T00:46:53.347Z",
  "devdoc": {
    "kind": "dev",
    "methods": {},
    "version": 1
  },
  "userdoc": {
    "kind": "user",
    "methods": {},
    "version": 1
  }
}