{
  "contractName": "Decentral",
  "abi": [
    {
      "inputs": [],
      "stateMutability": "nonpayable",
      "type": "constructor"
    },
    {
      "inputs": [
        {
          "internalType": "string",
          "name": "_party_id",
          "type": "string"
        },
        {
          "internalType": "string",
          "name": "_name",
          "type": "string"
        },
        {
          "internalType": "string",
          "name": "_constituency_id",
          "type": "string"
        }
      ],
      "name": "addNewParty",
      "outputs": [],
      "stateMutability": "nonpayable",
      "type": "function"
    },
    {
      "inputs": [
        {
          "internalType": "string",
          "name": "_party_id",
          "type": "string"
        },
        {
          "internalType": "string",
          "name": "_name",
          "type": "string"
        },
        {
          "internalType": "string",
          "name": "_constituency_id",
          "type": "string"
        },
        {
          "internalType": "bool",
          "name": "_active",
          "type": "bool"
        }
      ],
      "name": "updateParty",
      "outputs": [],
      "stateMutability": "nonpayable",
      "type": "function"
    },
    {
      "inputs": [],
      "name": "getAllActiveParties",
      "outputs": [
        {
          "internalType": "contract Party[]",
          "name": "",
          "type": "address[]"
        }
      ],
      "stateMutability": "view",
      "type": "function",
      "constant": true
    }
  ],
  "bytecode": "0x608060405234801561001057600080fd5b50611cfc806100206000396000f3fe608060405234801561001057600080fd5b50600436106100415760003560e01c8063339bd364146100465780633b3b2cf8146100625780638e4e542314610080575b600080fd5b610060600480360381019061005b9190610810565b61009c565b005b61006a6101da565b60405161007791906109e5565b60405180910390f35b61009a60048036038101906100959190610a3f565b610553565b005b60006040516100aa90610606565b604051809103906000f0801580156100c6573d6000803e3d6000fd5b5090508073ffffffffffffffffffffffffffffffffffffffff16631a67bb9085858560016040518563ffffffff1660e01b81526004016101099493929190610b91565b600060405180830381600087803b15801561012357600080fd5b505af1158015610137573d6000803e3d6000fd5b505050508060008560405161014c9190610c27565b908152602001604051809103902060006101000a81548173ffffffffffffffffffffffffffffffffffffffff021916908373ffffffffffffffffffffffffffffffffffffffff1602179055506001849080600181540180825580915050600190039060005260206000200160009091909190915090805190602001906101d3929190610613565b5050505050565b60606000805b6001805490508110156102de5760006001828154811061020357610202610c3e565b5b9060005260206000200160405161021a9190610d61565b908152602001604051809103902060009054906101000a900473ffffffffffffffffffffffffffffffffffffffff1673ffffffffffffffffffffffffffffffffffffffff16630c9933006040518163ffffffff1660e01b8152600401602060405180830381865afa158015610293573d6000803e3d6000fd5b505050506040513d601f19601f820116820180604052508101906102b79190610d8d565b156102cb5781806102c790610df3565b9250505b80806102d690610df3565b9150506101e0565b5060008167ffffffffffffffff8111156102fb576102fa6106e5565b5b6040519080825280602002602001820160405280156103295781602001602082028036833780820191505090505b5090506000805b6001805490508110156105495760006001828154811061035357610352610c3e565b5b90600052602060002001805461036890610c9c565b80601f016020809104026020016040519081016040528092919081815260200182805461039490610c9c565b80156103e15780601f106103b6576101008083540402835291602001916103e1565b820191906000526020600020905b8154815290600101906020018083116103c457829003601f168201915b505050505090506000816040516103f89190610c27565b908152602001604051809103902060009054906101000a900473ffffffffffffffffffffffffffffffffffffffff1673ffffffffffffffffffffffffffffffffffffffff16630c9933006040518163ffffffff1660e01b8152600401602060405180830381865afa158015610471573d6000803e3d6000fd5b505050506040513d601f19601f820116820180604052508101906104959190610d8d565b15610535576000816040516104aa9190610c27565b908152602001604051809103902060009054906101000a900473ffffffffffffffffffffffffffffffffffffffff168484815181106104ec576104eb610c3e565b5b602002602001019073ffffffffffffffffffffffffffffffffffffffff16908173ffffffffffffffffffffffffffffffffffffffff1681525050828061053190610df3565b9350505b50808061054190610df3565b915050610330565b5081935050505090565b6000846040516105639190610c27565b908152602001604051809103902060009054906101000a900473ffffffffffffffffffffffffffffffffffffffff1673ffffffffffffffffffffffffffffffffffffffff1663c4b349908484846040518463ffffffff1660e01b81526004016105ce93929190610e3b565b600060405180830381600087803b1580156105e857600080fd5b505af11580156105fc573d6000803e3d6000fd5b5050505050505050565b610e4680610e8183390190565b82805461061f90610c9c565b90600052602060002090601f0160209004810192826106415760008555610688565b82601f1061065a57805160ff1916838001178555610688565b82800160010185558215610688579182015b8281111561068757825182559160200191906001019061066c565b5b5090506106959190610699565b5090565b5b808211156106b257600081600090555060010161069a565b5090565b6000604051905090565b600080fd5b600080fd5b600080fd5b600080fd5b6000601f19601f8301169050919050565b7f4e487b7100000000000000000000000000000000000000000000000000000000600052604160045260246000fd5b61071d826106d4565b810181811067ffffffffffffffff8211171561073c5761073b6106e5565b5b80604052505050565b600061074f6106b6565b905061075b8282610714565b919050565b600067ffffffffffffffff82111561077b5761077a6106e5565b5b610784826106d4565b9050602081019050919050565b82818337600083830152505050565b60006107b36107ae84610760565b610745565b9050828152602081018484840111156107cf576107ce6106cf565b5b6107da848285610791565b509392505050565b600082601f8301126107f7576107f66106ca565b5b81356108078482602086016107a0565b91505092915050565b600080600060608486031215610829576108286106c0565b5b600084013567ffffffffffffffff811115610847576108466106c5565b5b610853868287016107e2565b935050602084013567ffffffffffffffff811115610874576108736106c5565b5b610880868287016107e2565b925050604084013567ffffffffffffffff8111156108a1576108a06106c5565b5b6108ad868287016107e2565b9150509250925092565b600081519050919050565b600082825260208201905092915050565b6000819050602082019050919050565b600073ffffffffffffffffffffffffffffffffffffffff82169050919050565b6000819050919050565b600061092861092361091e846108e3565b610903565b6108e3565b9050919050565b600061093a8261090d565b9050919050565b600061094c8261092f565b9050919050565b61095c81610941565b82525050565b600061096e8383610953565b60208301905092915050565b6000602082019050919050565b6000610992826108b7565b61099c81856108c2565b93506109a7836108d3565b8060005b838110156109d85781516109bf8882610962565b97506109ca8361097a565b9250506001810190506109ab565b5085935050505092915050565b600060208201905081810360008301526109ff8184610987565b905092915050565b60008115159050919050565b610a1c81610a07565b8114610a2757600080fd5b50565b600081359050610a3981610a13565b92915050565b60008060008060808587031215610a5957610a586106c0565b5b600085013567ffffffffffffffff811115610a7757610a766106c5565b5b610a83878288016107e2565b945050602085013567ffffffffffffffff811115610aa457610aa36106c5565b5b610ab0878288016107e2565b935050604085013567ffffffffffffffff811115610ad157610ad06106c5565b5b610add878288016107e2565b9250506060610aee87828801610a2a565b91505092959194509250565b600081519050919050565b600082825260208201905092915050565b60005b83811015610b34578082015181840152602081019050610b19565b83811115610b43576000848401525b50505050565b6000610b5482610afa565b610b5e8185610b05565b9350610b6e818560208601610b16565b610b77816106d4565b840191505092915050565b610b8b81610a07565b82525050565b60006080820190508181036000830152610bab8187610b49565b90508181036020830152610bbf8186610b49565b90508181036040830152610bd38185610b49565b9050610be26060830184610b82565b95945050505050565b600081905092915050565b6000610c0182610afa565b610c0b8185610beb565b9350610c1b818560208601610b16565b80840191505092915050565b6000610c338284610bf6565b915081905092915050565b7f4e487b7100000000000000000000000000000000000000000000000000000000600052603260045260246000fd5b7f4e487b7100000000000000000000000000000000000000000000000000000000600052602260045260246000fd5b60006002820490506001821680610cb457607f821691505b602082108103610cc757610cc6610c6d565b5b50919050565b60008190508160005260206000209050919050565b60008154610cef81610c9c565b610cf98186610beb565b94506001821660008114610d145760018114610d2557610d58565b60ff19831686528186019350610d58565b610d2e85610ccd565b60005b83811015610d5057815481890152600182019150602081019050610d31565b838801955050505b50505092915050565b6000610d6d8284610ce2565b915081905092915050565b600081519050610d8781610a13565b92915050565b600060208284031215610da357610da26106c0565b5b6000610db184828501610d78565b91505092915050565b7f4e487b7100000000000000000000000000000000000000000000000000000000600052601160045260246000fd5b6000819050919050565b6000610dfe82610de9565b91507fffffffffffffffffffffffffffffffffffffffffffffffffffffffffffffffff8203610e3057610e2f610dba565b5b600182019050919050565b60006060820190508181036000830152610e558186610b49565b90508181036020830152610e698185610b49565b9050610e786040830184610b82565b94935050505056fe608060405234801561001057600080fd5b50610e26806100206000396000f3fe608060405234801561001057600080fd5b50600436106100b45760003560e01c80632fb0fc6f116100715780632fb0fc6f1461016b57806330de7d01146101895780635094c86b146101a7578063a3ec138d146101c5578063c4b34990146101f5578063dd9eba5714610211576100b4565b806306fdde03146100b95780630c993300146100d757806319a99147146100f55780631a67bb90146101135780631a8012e41461012f5780632dd5b20d1461014d575b600080fd5b6100c1610232565b6040516100ce9190610998565b60405180910390f35b6100df6102c0565b6040516100ec91906109d5565b60405180910390f35b6100fd6102d7565b60405161010a9190610998565b60405180910390f35b61012d60048036038101906101289190610b65565b610369565b005b6101376103ce565b60405161014491906109d5565b60405180910390f35b6101556103e1565b6040516101629190610998565b60405180910390f35b610173610473565b6040516101809190610998565b60405180910390f35b610191610505565b60405161019e9190610998565b60405180910390f35b6101af610593565b6040516101bc9190610998565b60405180910390f35b6101df60048036038101906101da9190610c7e565b610621565b6040516101ec91906109d5565b60405180910390f35b61020f600480360381019061020a9190610cab565b610641565b005b61021961068e565b6040516102299493929190610d36565b60405180910390f35b6001805461023f90610dbf565b80601f016020809104026020016040519081016040528092919081815260200182805461026b90610dbf565b80156102b85780601f1061028d576101008083540402835291602001916102b8565b820191906000526020600020905b81548152906001019060200180831161029b57829003601f168201915b505050505081565b6000600360009054906101000a900460ff16905090565b6060600280546102e690610dbf565b80601f016020809104026020016040519081016040528092919081815260200182805461031290610dbf565b801561035f5780601f106103345761010080835404028352916020019161035f565b820191906000526020600020905b81548152906001019060200180831161034257829003601f168201915b5050505050905090565b836000908051906020019061037f92919061085c565b50816002908051906020019061039692919061085c565b5082600190805190602001906103ad92919061085c565b5080600360006101000a81548160ff02191690831515021790555050505050565b600360009054906101000a900460ff1681565b6060600180546103f090610dbf565b80601f016020809104026020016040519081016040528092919081815260200182805461041c90610dbf565b80156104695780601f1061043e57610100808354040283529160200191610469565b820191906000526020600020905b81548152906001019060200180831161044c57829003601f168201915b5050505050905090565b60606000805461048290610dbf565b80601f01602080910402602001604051908101604052809291908181526020018280546104ae90610dbf565b80156104fb5780601f106104d0576101008083540402835291602001916104fb565b820191906000526020600020905b8154815290600101906020018083116104de57829003601f168201915b5050505050905090565b6002805461051290610dbf565b80601f016020809104026020016040519081016040528092919081815260200182805461053e90610dbf565b801561058b5780601f106105605761010080835404028352916020019161058b565b820191906000526020600020905b81548152906001019060200180831161056e57829003601f168201915b505050505081565b600080546105a090610dbf565b80601f01602080910402602001604051908101604052809291908181526020018280546105cc90610dbf565b80156106195780601f106105ee57610100808354040283529160200191610619565b820191906000526020600020905b8154815290600101906020018083116105fc57829003601f168201915b505050505081565b60046020528060005260406000206000915054906101000a900460ff1681565b816002908051906020019061065792919061085c565b50826001908051906020019061066e92919061085c565b5080600360006101000a81548160ff021916908315150217905550505050565b606080606060008060016002600360009054906101000a900460ff168380546106b690610dbf565b80601f01602080910402602001604051908101604052809291908181526020018280546106e290610dbf565b801561072f5780601f106107045761010080835404028352916020019161072f565b820191906000526020600020905b81548152906001019060200180831161071257829003601f168201915b5050505050935082805461074290610dbf565b80601f016020809104026020016040519081016040528092919081815260200182805461076e90610dbf565b80156107bb5780601f10610790576101008083540402835291602001916107bb565b820191906000526020600020905b81548152906001019060200180831161079e57829003601f168201915b505050505092508180546107ce90610dbf565b80601f01602080910402602001604051908101604052809291908181526020018280546107fa90610dbf565b80156108475780601f1061081c57610100808354040283529160200191610847565b820191906000526020600020905b81548152906001019060200180831161082a57829003601f168201915b50505050509150935093509350935090919293565b82805461086890610dbf565b90600052602060002090601f01602090048101928261088a57600085556108d1565b82601f106108a357805160ff19168380011785556108d1565b828001600101855582156108d1579182015b828111156108d05782518255916020019190600101906108b5565b5b5090506108de91906108e2565b5090565b5b808211156108fb5760008160009055506001016108e3565b5090565b600081519050919050565b600082825260208201905092915050565b60005b8381101561093957808201518184015260208101905061091e565b83811115610948576000848401525b50505050565b6000601f19601f8301169050919050565b600061096a826108ff565b610974818561090a565b935061098481856020860161091b565b61098d8161094e565b840191505092915050565b600060208201905081810360008301526109b2818461095f565b905092915050565b60008115159050919050565b6109cf816109ba565b82525050565b60006020820190506109ea60008301846109c6565b92915050565b6000604051905090565b600080fd5b600080fd5b600080fd5b600080fd5b7f4e487b7100000000000000000000000000000000000000000000000000000000600052604160045260246000fd5b610a468261094e565b810181811067ffffffffffffffff82111715610a6557610a64610a0e565b5b80604052505050565b6000610a786109f0565b9050610a848282610a3d565b919050565b600067ffffffffffffffff821115610aa457610aa3610a0e565b5b610aad8261094e565b9050602081019050919050565b82818337600083830152505050565b6000610adc610ad784610a89565b610a6e565b905082815260208101848484011115610af857610af7610a09565b5b610b03848285610aba565b509392505050565b600082601f830112610b2057610b1f610a04565b5b8135610b30848260208601610ac9565b91505092915050565b610b42816109ba565b8114610b4d57600080fd5b50565b600081359050610b5f81610b39565b92915050565b60008060008060808587031215610b7f57610b7e6109fa565b5b600085013567ffffffffffffffff811115610b9d57610b9c6109ff565b5b610ba987828801610b0b565b945050602085013567ffffffffffffffff811115610bca57610bc96109ff565b5b610bd687828801610b0b565b935050604085013567ffffffffffffffff811115610bf757610bf66109ff565b5b610c0387828801610b0b565b9250506060610c1487828801610b50565b91505092959194509250565b600073ffffffffffffffffffffffffffffffffffffffff82169050919050565b6000610c4b82610c20565b9050919050565b610c5b81610c40565b8114610c6657600080fd5b50565b600081359050610c7881610c52565b92915050565b600060208284031215610c9457610c936109fa565b5b6000610ca284828501610c69565b91505092915050565b600080600060608486031215610cc457610cc36109fa565b5b600084013567ffffffffffffffff811115610ce257610ce16109ff565b5b610cee86828701610b0b565b935050602084013567ffffffffffffffff811115610d0f57610d0e6109ff565b5b610d1b86828701610b0b565b9250506040610d2c86828701610b50565b9150509250925092565b60006080820190508181036000830152610d50818761095f565b90508181036020830152610d64818661095f565b90508181036040830152610d78818561095f565b9050610d8760608301846109c6565b95945050505050565b7f4e487b7100000000000000000000000000000000000000000000000000000000600052602260045260246000fd5b60006002820490506001821680610dd757607f821691505b602082108103610dea57610de9610d90565b5b5091905056fea2646970667358221220d3c0afb07732397f9ae0075d07269c019ba35f6598a25b2e2c8dd1d53644f39c64736f6c634300080d0033a26469706673582212201820d5183e42d51407c51e0f125a4f06c89fa030633aa800b52d1eec95692acd64736f6c634300080d0033",
  "immutableReferences": {},
  "source": "// SPDX-License-Identifier: MIT\r\npragma solidity >=0.4.20;\r\n// import \"./Candidate.sol\";\r\nimport \"./Party.sol\";\r\n\r\ncontract Decentral {\r\n    mapping(string => Party) private parties;\r\n    // mapping(string => Candidate) private candidates;\r\n    string[] private partyIds; // Maintain an array of party IDs\r\n\r\n    constructor() {}\r\n\r\n    function addNewParty(\r\n        string memory _party_id,\r\n        string memory _name,\r\n        string memory _constituency_id\r\n    ) public {\r\n        Party newParty = new Party(); // Initialize the party as active\r\n        // revert(\"Checking Party\");\r\n        newParty.setParty(_party_id, _name, _constituency_id, true);\r\n        parties[_party_id] = newParty;\r\n        partyIds.push(_party_id); // Add the party ID to the array\r\n    }\r\n\r\n    function updateParty(\r\n        string memory _party_id,\r\n        string memory _name,\r\n        string memory _constituency_id,\r\n        bool _active\r\n    ) public {\r\n        parties[_party_id].updateParty(_name, _constituency_id, _active);\r\n    }\r\n\r\n    function getAllActiveParties() public view returns (Party[] memory) {\r\n        uint256 activePartyCount = 0;\r\n\r\n        // First, count the number of active parties\r\n        for (uint256 i = 0; i < partyIds.length; i++) {\r\n            if (parties[partyIds[i]].partyisActive()) {\r\n                activePartyCount++;\r\n            }\r\n        }\r\n\r\n        // Create an array to store the active party objects\r\n        Party[] memory activeParties = new Party[](activePartyCount);\r\n        uint256 activePartyIndex = 0;\r\n\r\n        // Second, populate the array with active party objects\r\n        for (uint256 i = 0; i < partyIds.length; i++) {\r\n            string memory partyId = partyIds[i];\r\n            if (parties[partyId].partyisActive()) {\r\n                activeParties[activePartyIndex] = parties[partyId];\r\n                activePartyIndex++;\r\n            }\r\n        }\r\n\r\n        return activeParties;\r\n    }\r\n}\r\n",
  "sourcePath": "D:\\Essex\\dApp\\22-23_CE901-CE902-SU_chaudhary_ashir\\d-voting-app-client\\src\\Blockchain\\contracts\\Decentral.sol",
  "compiler": {
    "name": "solc",
    "version": "0.8.13+commit.abaa5c0e.Emscripten.clang"
  },
  "schemaVersion": "3.4.15",
  "updatedAt": "2023-09-05T00:46:58.560Z",
  "networkType": "ethereum",
  "devdoc": {
    "kind": "dev",
    "methods": {},
    "version": 1
  },
  "userdoc": {
    "kind": "user",
    "methods": {},
    "version": 1
  }
}