{
  "contractName": "Election",
  "abi": [
    {
      "inputs": [
        {
          "internalType": "string",
          "name": "",
          "type": "string"
        }
      ],
      "name": "candidates",
      "outputs": [
        {
          "internalType": "string",
          "name": "candidate_id",
          "type": "string"
        },
        {
          "internalType": "string",
          "name": "election_id",
          "type": "string"
        },
        {
          "internalType": "string",
          "name": "constituency_id",
          "type": "string"
        },
        {
          "internalType": "uint256",
          "name": "voteCount",
          "type": "uint256"
        }
      ],
      "stateMutability": "view",
      "type": "function"
    },
    {
      "inputs": [
        {
          "internalType": "string",
          "name": "_candidate_id",
          "type": "string"
        },
        {
          "internalType": "string",
          "name": "_election_id",
          "type": "string"
        },
        {
          "internalType": "string",
          "name": "_constituency_id",
          "type": "string"
        }
      ],
      "name": "addCandidate",
      "outputs": [],
      "stateMutability": "nonpayable",
      "type": "function"
    },
    {
      "inputs": [
        {
          "internalType": "string",
          "name": "_candidateId",
          "type": "string"
        }
      ],
      "name": "vote",
      "outputs": [],
      "stateMutability": "nonpayable",
      "type": "function"
    }
  ],
  "bytecode": "0x608060405234801561001057600080fd5b50610d53806100206000396000f3fe608060405234801561001057600080fd5b50600436106100415760003560e01c8063ad71f8dc14610046578063c5539cc214610062578063fc36e15b14610095575b600080fd5b610060600480360381019061005b9190610734565b6100b1565b005b61007c600480360381019061007791906107db565b61025b565b60405161008c94939291906108c5565b60405180910390f35b6100af60048036038101906100aa91906107db565b610439565b005b60008351116100f5576040517f08c379a00000000000000000000000000000000000000000000000000000000081526004016100ec9061096b565b60405180910390fd5b6000825111610139576040517f08c379a0000000000000000000000000000000000000000000000000000000008152600401610130906109d7565b60405180910390fd5b600081511161017d576040517f08c379a000000000000000000000000000000000000000000000000000000000815260040161017490610a43565b60405180910390fd5b6000808460405161018e9190610a9f565b908152602001604051809103902060030154146101e0576040517f08c379a00000000000000000000000000000000000000000000000000000000081526004016101d790610b28565b60405180910390fd5b600080846040516101f19190610a9f565b908152602001604051809103902060040160003373ffffffffffffffffffffffffffffffffffffffff1673ffffffffffffffffffffffffffffffffffffffff16815260200190815260200160002060006101000a81548160ff021916908315150217905550505050565b60008180516020810182018051848252602083016020850120818352809550505050505060009150905080600001805461029490610b77565b80601f01602080910402602001604051908101604052809291908181526020018280546102c090610b77565b801561030d5780601f106102e25761010080835404028352916020019161030d565b820191906000526020600020905b8154815290600101906020018083116102f057829003601f168201915b50505050509080600101805461032290610b77565b80601f016020809104026020016040519081016040528092919081815260200182805461034e90610b77565b801561039b5780601f106103705761010080835404028352916020019161039b565b820191906000526020600020905b81548152906001019060200180831161037e57829003601f168201915b5050505050908060020180546103b090610b77565b80601f01602080910402602001604051908101604052809291908181526020018280546103dc90610b77565b80156104295780601f106103fe57610100808354040283529160200191610429565b820191906000526020600020905b81548152906001019060200180831161040c57829003601f168201915b5050505050908060030154905084565b6000816040516104499190610a9f565b908152602001604051809103902060040160003373ffffffffffffffffffffffffffffffffffffffff1673ffffffffffffffffffffffffffffffffffffffff16815260200190815260200160002060009054906101000a900460ff16156104e5576040517f08c379a00000000000000000000000000000000000000000000000000000000081526004016104dc90610c1a565b60405180910390fd5b6000815111610529576040517f08c379a000000000000000000000000000000000000000000000000000000000815260040161052090610c86565b60405180910390fd5b600160008260405161053b9190610a9f565b908152602001604051809103902060040160003373ffffffffffffffffffffffffffffffffffffffff1673ffffffffffffffffffffffffffffffffffffffff16815260200190815260200160002060006101000a81548160ff0219169083151502179055506000816040516105b09190610a9f565b908152602001604051809103902060030160008154809291906105d290610cd5565b919050555050565b6000604051905090565b600080fd5b600080fd5b600080fd5b600080fd5b6000601f19601f8301169050919050565b7f4e487b7100000000000000000000000000000000000000000000000000000000600052604160045260246000fd5b610641826105f8565b810181811067ffffffffffffffff821117156106605761065f610609565b5b80604052505050565b60006106736105da565b905061067f8282610638565b919050565b600067ffffffffffffffff82111561069f5761069e610609565b5b6106a8826105f8565b9050602081019050919050565b82818337600083830152505050565b60006106d76106d284610684565b610669565b9050828152602081018484840111156106f3576106f26105f3565b5b6106fe8482856106b5565b509392505050565b600082601f83011261071b5761071a6105ee565b5b813561072b8482602086016106c4565b91505092915050565b60008060006060848603121561074d5761074c6105e4565b5b600084013567ffffffffffffffff81111561076b5761076a6105e9565b5b61077786828701610706565b935050602084013567ffffffffffffffff811115610798576107976105e9565b5b6107a486828701610706565b925050604084013567ffffffffffffffff8111156107c5576107c46105e9565b5b6107d186828701610706565b9150509250925092565b6000602082840312156107f1576107f06105e4565b5b600082013567ffffffffffffffff81111561080f5761080e6105e9565b5b61081b84828501610706565b91505092915050565b600081519050919050565b600082825260208201905092915050565b60005b8381101561085e578082015181840152602081019050610843565b8381111561086d576000848401525b50505050565b600061087e82610824565b610888818561082f565b9350610898818560208601610840565b6108a1816105f8565b840191505092915050565b6000819050919050565b6108bf816108ac565b82525050565b600060808201905081810360008301526108df8187610873565b905081810360208301526108f38186610873565b905081810360408301526109078185610873565b905061091660608301846108b6565b95945050505050565b7f43616e6469646174652049442063616e6e6f7420626520656d70747900000000600082015250565b6000610955601c8361082f565b91506109608261091f565b602082019050919050565b6000602082019050818103600083015261098481610948565b9050919050565b7f456c656374696f6e2049442063616e6e6f7420626520656d7074790000000000600082015250565b60006109c1601b8361082f565b91506109cc8261098b565b602082019050919050565b600060208201905081810360008301526109f0816109b4565b9050919050565b7f436f6e7374697475656e63792049442063616e6e6f7420626520656d70747900600082015250565b6000610a2d601f8361082f565b9150610a38826109f7565b602082019050919050565b60006020820190508181036000830152610a5c81610a20565b9050919050565b600081905092915050565b6000610a7982610824565b610a838185610a63565b9350610a93818560208601610840565b80840191505092915050565b6000610aab8284610a6e565b915081905092915050565b7f43616e6469646174652077697468207468697320494420616c7265616479206560008201527f7869737473000000000000000000000000000000000000000000000000000000602082015250565b6000610b1260258361082f565b9150610b1d82610ab6565b604082019050919050565b60006020820190508181036000830152610b4181610b05565b9050919050565b7f4e487b7100000000000000000000000000000000000000000000000000000000600052602260045260246000fd5b60006002820490506001821680610b8f57607f821691505b602082108103610ba257610ba1610b48565b5b50919050565b7f596f75206861766520616c726561647920766f74656420666f7220746869732060008201527f63616e6469646174650000000000000000000000000000000000000000000000602082015250565b6000610c0460298361082f565b9150610c0f82610ba8565b604082019050919050565b60006020820190508181036000830152610c3381610bf7565b9050919050565b7f496e76616c69642063616e646964617465204944000000000000000000000000600082015250565b6000610c7060148361082f565b9150610c7b82610c3a565b602082019050919050565b60006020820190508181036000830152610c9f81610c63565b9050919050565b7f4e487b7100000000000000000000000000000000000000000000000000000000600052601160045260246000fd5b6000610ce0826108ac565b91507fffffffffffffffffffffffffffffffffffffffffffffffffffffffffffffffff8203610d1257610d11610ca6565b5b60018201905091905056fea26469706673582212205b7b08c3e3e2a3dcb1a78f5f1d428f5c6dfa5e31fa7a1c6feba3bd78f992ff3864736f6c634300080d0033",
  "immutableReferences": {},
  "source": "// SPDX-License-Identifier: MIT\r\npragma solidity >=0.4.20;\r\n\r\ncontract Election {\r\n    struct Candidate {\r\n        string candidate_id;\r\n        string election_id;\r\n        string constituency_id;\r\n        uint voteCount;\r\n        mapping(address => bool) voters;\r\n    }\r\n    \r\n    mapping(string => Candidate) public candidates;\r\n\r\n    function addCandidate(string memory _candidate_id, string memory _election_id, string memory _constituency_id) public {\r\n        require(bytes(_candidate_id).length > 0, \"Candidate ID cannot be empty\");\r\n        require(bytes(_election_id).length > 0, \"Election ID cannot be empty\");\r\n        require(bytes(_constituency_id).length > 0, \"Constituency ID cannot be empty\");\r\n        require(candidates[_candidate_id].voteCount == 0, \"Candidate with this ID already exists\");\r\n        \r\n\r\n        // Candidate storage newCandidate = Candidate({\r\n        //     candidate_id: _candidate_id,\r\n        //     election_id: _election_id,\r\n        //     constituency_id: _constituency_id,\r\n        //     voteCount: 0\r\n        // });\r\n        \r\n        // candidates[_candidate_id] = newCandidate;\r\n\r\n\r\n        // Initialize the nested mapping for the candidate\r\n        candidates[_candidate_id].voters[msg.sender] = false;\r\n    }\r\n\r\n    function vote(string memory _candidateId) public {\r\n        // require that they haven't voted before\r\n        require(!candidates[_candidateId].voters[msg.sender], \"You have already voted for this candidate\");\r\n\r\n        // require a valid candidate\r\n        require(bytes(_candidateId).length > 0, \"Invalid candidate ID\");\r\n\r\n        // record that voter has voted\r\n        candidates[_candidateId].voters[msg.sender] = true;\r\n\r\n        // update candidate vote Count\r\n        candidates[_candidateId].voteCount++;\r\n    }\r\n}\r\n",
  "sourcePath": "D:\\Essex\\dApp\\22-23_CE901-CE902-SU_chaudhary_ashir\\d-voting-app-client\\src\\Blockchain\\contracts\\Election.sol",
  "compiler": {
    "name": "solc",
    "version": "0.8.13+commit.abaa5c0e.Emscripten.clang"
  },
  "schemaVersion": "3.4.15",
  "updatedAt": "2023-09-05T00:46:53.363Z",
  "devdoc": {
    "kind": "dev",
    "methods": {},
    "version": 1
  },
  "userdoc": {
    "kind": "user",
    "methods": {},
    "version": 1
  }
}