{
  "contractName": "Party",
  "abi": [
    {
      "inputs": [],
      "stateMutability": "nonpayable",
      "type": "constructor"
    },
    {
      "inputs": [],
      "name": "constituency_id",
      "outputs": [
        {
          "internalType": "string",
          "name": "",
          "type": "string"
        }
      ],
      "stateMutability": "view",
      "type": "function",
      "constant": true
    },
    {
      "inputs": [],
      "name": "is_active",
      "outputs": [
        {
          "internalType": "bool",
          "name": "",
          "type": "bool"
        }
      ],
      "stateMutability": "view",
      "type": "function",
      "constant": true
    },
    {
      "inputs": [],
      "name": "name",
      "outputs": [
        {
          "internalType": "string",
          "name": "",
          "type": "string"
        }
      ],
      "stateMutability": "view",
      "type": "function",
      "constant": true
    },
    {
      "inputs": [],
      "name": "party_id",
      "outputs": [
        {
          "internalType": "string",
          "name": "",
          "type": "string"
        }
      ],
      "stateMutability": "view",
      "type": "function",
      "constant": true
    },
    {
      "inputs": [
        {
          "internalType": "address",
          "name": "",
          "type": "address"
        }
      ],
      "name": "voters",
      "outputs": [
        {
          "internalType": "bool",
          "name": "",
          "type": "bool"
        }
      ],
      "stateMutability": "view",
      "type": "function",
      "constant": true
    },
    {
      "inputs": [
        {
          "internalType": "string",
          "name": "_id",
          "type": "string"
        },
        {
          "internalType": "string",
          "name": "_name",
          "type": "string"
        },
        {
          "internalType": "string",
          "name": "_constituency_id",
          "type": "string"
        },
        {
          "internalType": "bool",
          "name": "active",
          "type": "bool"
        }
      ],
      "name": "setParty",
      "outputs": [],
      "stateMutability": "nonpayable",
      "type": "function"
    },
    {
      "inputs": [
        {
          "internalType": "string",
          "name": "_name",
          "type": "string"
        },
        {
          "internalType": "string",
          "name": "_constituency_id",
          "type": "string"
        },
        {
          "internalType": "bool",
          "name": "active",
          "type": "bool"
        }
      ],
      "name": "updateParty",
      "outputs": [],
      "stateMutability": "nonpayable",
      "type": "function"
    },
    {
      "inputs": [],
      "name": "getPartyName",
      "outputs": [
        {
          "internalType": "string",
          "name": "",
          "type": "string"
        }
      ],
      "stateMutability": "view",
      "type": "function",
      "constant": true
    },
    {
      "inputs": [],
      "name": "getPartyId",
      "outputs": [
        {
          "internalType": "string",
          "name": "",
          "type": "string"
        }
      ],
      "stateMutability": "view",
      "type": "function",
      "constant": true
    },
    {
      "inputs": [],
      "name": "getPartyConstituencyId",
      "outputs": [
        {
          "internalType": "string",
          "name": "",
          "type": "string"
        }
      ],
      "stateMutability": "view",
      "type": "function",
      "constant": true
    },
    {
      "inputs": [],
      "name": "partyisActive",
      "outputs": [
        {
          "internalType": "bool",
          "name": "",
          "type": "bool"
        }
      ],
      "stateMutability": "view",
      "type": "function",
      "constant": true
    },
    {
      "inputs": [],
      "name": "getPartyDetails",
      "outputs": [
        {
          "internalType": "string",
          "name": "",
          "type": "string"
        },
        {
          "internalType": "string",
          "name": "",
          "type": "string"
        },
        {
          "internalType": "string",
          "name": "",
          "type": "string"
        },
        {
          "internalType": "bool",
          "name": "",
          "type": "bool"
        }
      ],
      "stateMutability": "view",
      "type": "function",
      "constant": true
    }
  ],
  "bytecode": "0x608060405234801561001057600080fd5b50610e26806100206000396000f3fe608060405234801561001057600080fd5b50600436106100b45760003560e01c80632fb0fc6f116100715780632fb0fc6f1461016b57806330de7d01146101895780635094c86b146101a7578063a3ec138d146101c5578063c4b34990146101f5578063dd9eba5714610211576100b4565b806306fdde03146100b95780630c993300146100d757806319a99147146100f55780631a67bb90146101135780631a8012e41461012f5780632dd5b20d1461014d575b600080fd5b6100c1610232565b6040516100ce9190610998565b60405180910390f35b6100df6102c0565b6040516100ec91906109d5565b60405180910390f35b6100fd6102d7565b60405161010a9190610998565b60405180910390f35b61012d60048036038101906101289190610b65565b610369565b005b6101376103ce565b60405161014491906109d5565b60405180910390f35b6101556103e1565b6040516101629190610998565b60405180910390f35b610173610473565b6040516101809190610998565b60405180910390f35b610191610505565b60405161019e9190610998565b60405180910390f35b6101af610593565b6040516101bc9190610998565b60405180910390f35b6101df60048036038101906101da9190610c7e565b610621565b6040516101ec91906109d5565b60405180910390f35b61020f600480360381019061020a9190610cab565b610641565b005b61021961068e565b6040516102299493929190610d36565b60405180910390f35b6001805461023f90610dbf565b80601f016020809104026020016040519081016040528092919081815260200182805461026b90610dbf565b80156102b85780601f1061028d576101008083540402835291602001916102b8565b820191906000526020600020905b81548152906001019060200180831161029b57829003601f168201915b505050505081565b6000600360009054906101000a900460ff16905090565b6060600280546102e690610dbf565b80601f016020809104026020016040519081016040528092919081815260200182805461031290610dbf565b801561035f5780601f106103345761010080835404028352916020019161035f565b820191906000526020600020905b81548152906001019060200180831161034257829003601f168201915b5050505050905090565b836000908051906020019061037f92919061085c565b50816002908051906020019061039692919061085c565b5082600190805190602001906103ad92919061085c565b5080600360006101000a81548160ff02191690831515021790555050505050565b600360009054906101000a900460ff1681565b6060600180546103f090610dbf565b80601f016020809104026020016040519081016040528092919081815260200182805461041c90610dbf565b80156104695780601f1061043e57610100808354040283529160200191610469565b820191906000526020600020905b81548152906001019060200180831161044c57829003601f168201915b5050505050905090565b60606000805461048290610dbf565b80601f01602080910402602001604051908101604052809291908181526020018280546104ae90610dbf565b80156104fb5780601f106104d0576101008083540402835291602001916104fb565b820191906000526020600020905b8154815290600101906020018083116104de57829003601f168201915b5050505050905090565b6002805461051290610dbf565b80601f016020809104026020016040519081016040528092919081815260200182805461053e90610dbf565b801561058b5780601f106105605761010080835404028352916020019161058b565b820191906000526020600020905b81548152906001019060200180831161056e57829003601f168201915b505050505081565b600080546105a090610dbf565b80601f01602080910402602001604051908101604052809291908181526020018280546105cc90610dbf565b80156106195780601f106105ee57610100808354040283529160200191610619565b820191906000526020600020905b8154815290600101906020018083116105fc57829003601f168201915b505050505081565b60046020528060005260406000206000915054906101000a900460ff1681565b816002908051906020019061065792919061085c565b50826001908051906020019061066e92919061085c565b5080600360006101000a81548160ff021916908315150217905550505050565b606080606060008060016002600360009054906101000a900460ff168380546106b690610dbf565b80601f01602080910402602001604051908101604052809291908181526020018280546106e290610dbf565b801561072f5780601f106107045761010080835404028352916020019161072f565b820191906000526020600020905b81548152906001019060200180831161071257829003601f168201915b5050505050935082805461074290610dbf565b80601f016020809104026020016040519081016040528092919081815260200182805461076e90610dbf565b80156107bb5780601f10610790576101008083540402835291602001916107bb565b820191906000526020600020905b81548152906001019060200180831161079e57829003601f168201915b505050505092508180546107ce90610dbf565b80601f01602080910402602001604051908101604052809291908181526020018280546107fa90610dbf565b80156108475780601f1061081c57610100808354040283529160200191610847565b820191906000526020600020905b81548152906001019060200180831161082a57829003601f168201915b50505050509150935093509350935090919293565b82805461086890610dbf565b90600052602060002090601f01602090048101928261088a57600085556108d1565b82601f106108a357805160ff19168380011785556108d1565b828001600101855582156108d1579182015b828111156108d05782518255916020019190600101906108b5565b5b5090506108de91906108e2565b5090565b5b808211156108fb5760008160009055506001016108e3565b5090565b600081519050919050565b600082825260208201905092915050565b60005b8381101561093957808201518184015260208101905061091e565b83811115610948576000848401525b50505050565b6000601f19601f8301169050919050565b600061096a826108ff565b610974818561090a565b935061098481856020860161091b565b61098d8161094e565b840191505092915050565b600060208201905081810360008301526109b2818461095f565b905092915050565b60008115159050919050565b6109cf816109ba565b82525050565b60006020820190506109ea60008301846109c6565b92915050565b6000604051905090565b600080fd5b600080fd5b600080fd5b600080fd5b7f4e487b7100000000000000000000000000000000000000000000000000000000600052604160045260246000fd5b610a468261094e565b810181811067ffffffffffffffff82111715610a6557610a64610a0e565b5b80604052505050565b6000610a786109f0565b9050610a848282610a3d565b919050565b600067ffffffffffffffff821115610aa457610aa3610a0e565b5b610aad8261094e565b9050602081019050919050565b82818337600083830152505050565b6000610adc610ad784610a89565b610a6e565b905082815260208101848484011115610af857610af7610a09565b5b610b03848285610aba565b509392505050565b600082601f830112610b2057610b1f610a04565b5b8135610b30848260208601610ac9565b91505092915050565b610b42816109ba565b8114610b4d57600080fd5b50565b600081359050610b5f81610b39565b92915050565b60008060008060808587031215610b7f57610b7e6109fa565b5b600085013567ffffffffffffffff811115610b9d57610b9c6109ff565b5b610ba987828801610b0b565b945050602085013567ffffffffffffffff811115610bca57610bc96109ff565b5b610bd687828801610b0b565b935050604085013567ffffffffffffffff811115610bf757610bf66109ff565b5b610c0387828801610b0b565b9250506060610c1487828801610b50565b91505092959194509250565b600073ffffffffffffffffffffffffffffffffffffffff82169050919050565b6000610c4b82610c20565b9050919050565b610c5b81610c40565b8114610c6657600080fd5b50565b600081359050610c7881610c52565b92915050565b600060208284031215610c9457610c936109fa565b5b6000610ca284828501610c69565b91505092915050565b600080600060608486031215610cc457610cc36109fa565b5b600084013567ffffffffffffffff811115610ce257610ce16109ff565b5b610cee86828701610b0b565b935050602084013567ffffffffffffffff811115610d0f57610d0e6109ff565b5b610d1b86828701610b0b565b9250506040610d2c86828701610b50565b9150509250925092565b60006080820190508181036000830152610d50818761095f565b90508181036020830152610d64818661095f565b90508181036040830152610d78818561095f565b9050610d8760608301846109c6565b95945050505050565b7f4e487b7100000000000000000000000000000000000000000000000000000000600052602260045260246000fd5b60006002820490506001821680610dd757607f821691505b602082108103610dea57610de9610d90565b5b5091905056fea2646970667358221220d3c0afb07732397f9ae0075d07269c019ba35f6598a25b2e2c8dd1d53644f39c64736f6c634300080d0033",
  "immutableReferences": {},
  "source": "// SPDX-License-Identifier: MIT\r\npragma solidity >=0.4.20;\r\n\r\ncontract Party {\r\n  // Read/write party\r\n  string public party_id;\r\n  string public name;\r\n  string public constituency_id;\r\n  bool public is_active;\r\n  mapping(address => bool) public voters;\r\n\r\n  // event PartyRegistered(string name, string constituencyId);\r\n  // event PartyDetailsUpdated(string name, string constituencyId);\r\n\r\n  constructor() {}\r\n  \r\n  function setParty(string memory _id,string memory _name, string memory _constituency_id, bool active) public {\r\n        party_id = _id;\r\n        constituency_id = _constituency_id;\r\n        name = _name;\r\n        is_active = active;\r\n  }\r\n\r\n  function updateParty(\r\n    string memory _name,\r\n    string memory _constituency_id,\r\n    bool active\r\n  ) public {\r\n    constituency_id = _constituency_id;\r\n    name = _name;\r\n    is_active = active;\r\n    // emit PartyDetailsUpdated(name, _constituency_id);\r\n  }\r\n\r\n  function getPartyName() public view returns (string memory) {\r\n    return name;\r\n  }\r\n    function getPartyId() public view returns (string memory) {\r\n    return party_id;\r\n  }\r\n\r\n  function getPartyConstituencyId() public view returns (string memory) {\r\n    return constituency_id;\r\n  }\r\n\r\n  function partyisActive() public view returns (bool) {\r\n    return is_active;\r\n  }\r\n\r\n  function getPartyDetails() public view returns (string memory,string memory, string memory, bool) {\r\n        return (party_id, name, constituency_id, is_active);\r\n    }\r\n}\r\n",
  "sourcePath": "D:\\Essex\\dApp\\22-23_CE901-CE902-SU_chaudhary_ashir\\d-voting-app-client\\src\\Blockchain\\contracts\\Party.sol",
  "compiler": {
    "name": "solc",
    "version": "0.8.13+commit.abaa5c0e.Emscripten.clang"
  },
  "schemaVersion": "3.4.15",
  "updatedAt": "2023-09-05T00:46:58.552Z",
  "networkType": "ethereum",
  "devdoc": {
    "kind": "dev",
    "methods": {},
    "version": 1
  },
  "userdoc": {
    "kind": "user",
    "methods": {},
    "version": 1
  }
}